{
  "_format": "hh-sol-artifact-1",
  "contractName": "ERC20Wrapper",
  "sourceName": "contracts/wrapper/ERC20Wrapper.sol",
  "abi": [
    {
      "inputs": [],
      "stateMutability": "nonpayable",
      "type": "constructor"
    },
    {
      "anonymous": false,
      "inputs": [
        {
          "indexed": true,
          "internalType": "address",
          "name": "_owner",
          "type": "address"
        },
        {
          "indexed": true,
          "internalType": "address",
          "name": "_operator",
          "type": "address"
        },
        {
          "indexed": false,
          "internalType": "bool",
          "name": "_approved",
          "type": "bool"
        }
      ],
      "name": "ApprovalForAll",
      "type": "event"
    },
    {
      "anonymous": false,
      "inputs": [
        {
          "indexed": false,
          "internalType": "address",
          "name": "token_address",
          "type": "address"
        },
        {
          "indexed": false,
          "internalType": "uint256",
          "name": "token_id",
          "type": "uint256"
        }
      ],
      "name": "TokenRegistration",
      "type": "event"
    },
    {
      "anonymous": false,
      "inputs": [
        {
          "indexed": true,
          "internalType": "address",
          "name": "_operator",
          "type": "address"
        },
        {
          "indexed": true,
          "internalType": "address",
          "name": "_from",
          "type": "address"
        },
        {
          "indexed": true,
          "internalType": "address",
          "name": "_to",
          "type": "address"
        },
        {
          "indexed": false,
          "internalType": "uint256[]",
          "name": "_ids",
          "type": "uint256[]"
        },
        {
          "indexed": false,
          "internalType": "uint256[]",
          "name": "_amounts",
          "type": "uint256[]"
        }
      ],
      "name": "TransferBatch",
      "type": "event"
    },
    {
      "anonymous": false,
      "inputs": [
        {
          "indexed": true,
          "internalType": "address",
          "name": "_operator",
          "type": "address"
        },
        {
          "indexed": true,
          "internalType": "address",
          "name": "_from",
          "type": "address"
        },
        {
          "indexed": true,
          "internalType": "address",
          "name": "_to",
          "type": "address"
        },
        {
          "indexed": false,
          "internalType": "uint256",
          "name": "_id",
          "type": "uint256"
        },
        {
          "indexed": false,
          "internalType": "uint256",
          "name": "_amount",
          "type": "uint256"
        }
      ],
      "name": "TransferSingle",
      "type": "event"
    },
    {
      "inputs": [
        {
          "internalType": "address",
          "name": "_owner",
          "type": "address"
        },
        {
          "internalType": "uint256",
          "name": "_id",
          "type": "uint256"
        }
      ],
      "name": "balanceOf",
      "outputs": [
        {
          "internalType": "uint256",
          "name": "",
          "type": "uint256"
        }
      ],
      "stateMutability": "view",
      "type": "function"
    },
    {
      "inputs": [
        {
          "internalType": "address[]",
          "name": "_owners",
          "type": "address[]"
        },
        {
          "internalType": "uint256[]",
          "name": "_ids",
          "type": "uint256[]"
        }
      ],
      "name": "balanceOfBatch",
      "outputs": [
        {
          "internalType": "uint256[]",
          "name": "",
          "type": "uint256[]"
        }
      ],
      "stateMutability": "view",
      "type": "function"
    },
    {
      "inputs": [
        {
          "internalType": "address",
          "name": "_token",
          "type": "address"
        },
        {
          "internalType": "address",
          "name": "_recipient",
          "type": "address"
        },
        {
          "internalType": "uint256",
          "name": "_value",
          "type": "uint256"
        }
      ],
      "name": "deposit",
      "outputs": [],
      "stateMutability": "payable",
      "type": "function"
    },
    {
      "inputs": [
        {
          "internalType": "uint256",
          "name": "_id",
          "type": "uint256"
        }
      ],
      "name": "getIdAddress",
      "outputs": [
        {
          "internalType": "address",
          "name": "token",
          "type": "address"
        }
      ],
      "stateMutability": "view",
      "type": "function"
    },
    {
      "inputs": [],
      "name": "getNTokens",
      "outputs": [
        {
          "internalType": "uint256",
          "name": "",
          "type": "uint256"
        }
      ],
      "stateMutability": "view",
      "type": "function"
    },
    {
      "inputs": [
        {
          "internalType": "address",
          "name": "_token",
          "type": "address"
        }
      ],
      "name": "getTokenID",
      "outputs": [
        {
          "internalType": "uint256",
          "name": "tokenID",
          "type": "uint256"
        }
      ],
      "stateMutability": "view",
      "type": "function"
    },
    {
      "inputs": [
        {
          "internalType": "address",
          "name": "_owner",
          "type": "address"
        },
        {
          "internalType": "address",
          "name": "_operator",
          "type": "address"
        }
      ],
      "name": "isApprovedForAll",
      "outputs": [
        {
          "internalType": "bool",
          "name": "isOperator",
          "type": "bool"
        }
      ],
      "stateMutability": "view",
      "type": "function"
    },
    {
      "inputs": [
        {
          "internalType": "address",
          "name": "",
          "type": "address"
        },
        {
          "internalType": "address payable",
          "name": "_from",
          "type": "address"
        },
        {
          "internalType": "uint256[]",
          "name": "_ids",
          "type": "uint256[]"
        },
        {
          "internalType": "uint256[]",
          "name": "_values",
          "type": "uint256[]"
        },
        {
          "internalType": "bytes",
          "name": "",
          "type": "bytes"
        }
      ],
      "name": "onERC1155BatchReceived",
      "outputs": [
        {
          "internalType": "bytes4",
          "name": "",
          "type": "bytes4"
        }
      ],
      "stateMutability": "nonpayable",
      "type": "function"
    },
    {
      "inputs": [
        {
          "internalType": "address",
          "name": "",
          "type": "address"
        },
        {
          "internalType": "address payable",
          "name": "_from",
          "type": "address"
        },
        {
          "internalType": "uint256",
          "name": "_id",
          "type": "uint256"
        },
        {
          "internalType": "uint256",
          "name": "_value",
          "type": "uint256"
        },
        {
          "internalType": "bytes",
          "name": "",
          "type": "bytes"
        }
      ],
      "name": "onERC1155Received",
      "outputs": [
        {
          "internalType": "bytes4",
          "name": "",
          "type": "bytes4"
        }
      ],
      "stateMutability": "nonpayable",
      "type": "function"
    },
    {
      "inputs": [
        {
          "internalType": "address",
          "name": "_from",
          "type": "address"
        },
        {
          "internalType": "address",
          "name": "_to",
          "type": "address"
        },
        {
          "internalType": "uint256[]",
          "name": "_ids",
          "type": "uint256[]"
        },
        {
          "internalType": "uint256[]",
          "name": "_amounts",
          "type": "uint256[]"
        },
        {
          "internalType": "bytes",
          "name": "_data",
          "type": "bytes"
        }
      ],
      "name": "safeBatchTransferFrom",
      "outputs": [],
      "stateMutability": "nonpayable",
      "type": "function"
    },
    {
      "inputs": [
        {
          "internalType": "address",
          "name": "_from",
          "type": "address"
        },
        {
          "internalType": "address",
          "name": "_to",
          "type": "address"
        },
        {
          "internalType": "uint256",
          "name": "_id",
          "type": "uint256"
        },
        {
          "internalType": "uint256",
          "name": "_amount",
          "type": "uint256"
        },
        {
          "internalType": "bytes",
          "name": "_data",
          "type": "bytes"
        }
      ],
      "name": "safeTransferFrom",
      "outputs": [],
      "stateMutability": "nonpayable",
      "type": "function"
    },
    {
      "inputs": [
        {
          "internalType": "address",
          "name": "_operator",
          "type": "address"
        },
        {
          "internalType": "bool",
          "name": "_approved",
          "type": "bool"
        }
      ],
      "name": "setApprovalForAll",
      "outputs": [],
      "stateMutability": "nonpayable",
      "type": "function"
    },
    {
      "inputs": [
        {
          "internalType": "bytes4",
          "name": "interfaceID",
          "type": "bytes4"
        }
      ],
      "name": "supportsInterface",
      "outputs": [
        {
          "internalType": "bool",
          "name": "",
          "type": "bool"
        }
      ],
      "stateMutability": "pure",
      "type": "function"
    },
    {
      "inputs": [
        {
          "internalType": "address",
          "name": "_token",
          "type": "address"
        },
        {
          "internalType": "address payable",
          "name": "_to",
          "type": "address"
        },
        {
          "internalType": "uint256",
          "name": "_value",
          "type": "uint256"
        }
      ],
      "name": "withdraw",
      "outputs": [],
      "stateMutability": "nonpayable",
      "type": "function"
    },
    {
      "stateMutability": "payable",
      "type": "receive"
    }
  ],
  "bytecode": "0x6080604052600160025534801561001557600080fd5b50600160008190527fa15bc60c955c405d20d9149c709e2460f1c2d9a497496a7f46004d1772c3054c81905560046020527fabd6e7cb50984ff9c2f3e18a2660c3353dadf4e3291deeb275dae2cd1e44fe0580547fffffffffffffffffffffffff00000000000000000000000000000000000000001690911790556125a38061009f6000396000f3fe6080604052600436106100e05760003560e01c80639040a9491161007f578063d9caed1211610059578063d9caed121461026a578063e985e9c51461028a578063f23a6e61146102aa578063f242432a146102ca576100f3565b80639040a94914610208578063a22cb4651461021d578063bc197c811461023d576100f3565b80634e1273f4116100bb5780634e1273f41461017b57806363f8071c146101a85780637358e9a5146101c85780638340f549146101f5576100f3565b8062fdd58e146100f857806301ffc9a71461012e5780632eb2c2d61461015b576100f3565b366100f3576100f1600133346102ea565b005b600080fd5b34801561010457600080fd5b50610118610113366004611d66565b6105bd565b6040516101259190612361565b60405180910390f35b34801561013a57600080fd5b5061014e610149366004611e70565b6105f0565b6040516101259190611f87565b34801561016757600080fd5b506100f1610176366004611be8565b6106d7565b34801561018757600080fd5b5061019b610196366004611d91565b6107e2565b6040516101259190611f43565b3480156101b457600080fd5b506101186101c3366004611b94565b61092e565b3480156101d457600080fd5b506101e86101e3366004611eb0565b61098b565b6040516101259190611ecb565b6100f1610203366004611c92565b6102ea565b34801561021457600080fd5b506101186109e7565b34801561022957600080fd5b506100f1610238366004611d39565b6109ed565b34801561024957600080fd5b5061025d610258366004611be8565b610a86565b6040516101259190611f92565b34801561027657600080fd5b506100f1610285366004611c92565b610b50565b34801561029657600080fd5b5061014e6102a5366004611bb0565b610b69565b3480156102b657600080fd5b5061025d6102c5366004611cd2565b610ba4565b3480156102d657600080fd5b506100f16102e5366004611cd2565b610c20565b73ffffffffffffffffffffffffffffffffffffffff8216610340576040517f08c379a000000000000000000000000000000000000000000000000000000000815260040161033790612133565b60405180910390fd5b600073ffffffffffffffffffffffffffffffffffffffff841660011461055f573415610398576040517f08c379a000000000000000000000000000000000000000000000000000000000815260040161033790612190565b6040517f23b872dd00000000000000000000000000000000000000000000000000000000815273ffffffffffffffffffffffffffffffffffffffff8516906323b872dd906103ee90339030908790600401611eec565b602060405180830381600087803b15801561040857600080fd5b505af115801561041c573d6000803e3d6000fd5b505050506040513d601f19601f820116820180604052508101906104409190611e54565b50610449610d24565b61047f576040517f08c379a000000000000000000000000000000000000000000000000000000000815260040161033790611fbf565b73ffffffffffffffffffffffffffffffffffffffff841660009081526003602052604090205480610555576002805460010190819055600081815260046020908152604080832080547fffffffffffffffffffffffff00000000000000000000000000000000000000001673ffffffffffffffffffffffffffffffffffffffff8b169081179091558352600390915290819020829055519092507ff977d54986414fc91816901629d1d788ad95448ab4198dcb9b6dc5ed2b930c1f906105489087908590611f1d565b60405180910390a1610559565b8091505b5061059c565b348214610598576040517f08c379a000000000000000000000000000000000000000000000000000000000815260040161033790612079565b5060015b6105b783828460405180602001604052806000815250610d58565b50505050565b73ffffffffffffffffffffffffffffffffffffffff91909116600090815260208181526040808320938352929052205490565b60007fffffffff0000000000000000000000000000000000000000000000000000000082167f01ffc9a700000000000000000000000000000000000000000000000000000000148061068357507fffffffff0000000000000000000000000000000000000000000000000000000082167fd9b67a2600000000000000000000000000000000000000000000000000000000145b806106cf57507fffffffff0000000000000000000000000000000000000000000000000000000082167f4e2312e000000000000000000000000000000000000000000000000000000000145b90505b919050565b3373ffffffffffffffffffffffffffffffffffffffff8616148061070057506107008533610b69565b610755576040517f08c379a000000000000000000000000000000000000000000000000000000000815260040180806020018281038252602f8152602001806124c6602f913960400191505060405180910390fd5b73ffffffffffffffffffffffffffffffffffffffff84166107c1576040517f08c379a000000000000000000000000000000000000000000000000000000000815260040180806020018281038252603081526020018061246a6030913960400191505060405180910390fd5b6107cd85858585610e0d565b6107db858585855a86611161565b5050505050565b6060815183511461083e576040517f08c379a000000000000000000000000000000000000000000000000000000000815260040180806020018281038252602c81526020018061249a602c913960400191505060405180910390fd5b6060835167ffffffffffffffff8111801561085857600080fd5b50604051908082528060200260200182016040528015610882578160200160208202803683370190505b50905060005b8451811015610926576000808683815181106108a057fe5b602002602001015173ffffffffffffffffffffffffffffffffffffffff1673ffffffffffffffffffffffffffffffffffffffff16815260200190815260200160002060008583815181106108f057fe5b602002602001015181526020019081526020016000205482828151811061091357fe5b6020908102919091010152600101610888565b509392505050565b73ffffffffffffffffffffffffffffffffffffffff8116600090815260036020526040902054806106d2576040517f08c379a0000000000000000000000000000000000000000000000000000000008152600401610337906122a7565b60008181526004602052604090205473ffffffffffffffffffffffffffffffffffffffff16806106d2576040517f08c379a0000000000000000000000000000000000000000000000000000000008152600401610337906120d6565b60025490565b33600081815260016020908152604080832073ffffffffffffffffffffffffffffffffffffffff87168085529083529281902080547fffffffffffffffffffffffffffffffffffffffffffffffffffffffffffffff0016861515908117909155815190815290519293927f17307eab39ab6107e8899845ad3d59bd9653f200f220920489ca2b5937696c31929181900390910190a35050565b6000333014610ac1576040517f08c379a000000000000000000000000000000000000000000000000000000000815260040161033790612304565b60005b8451811015610b2457610ae9858281518110610adc57fe5b602002602001015161098b565b50610b1c3087878481518110610afb57fe5b6020026020010151878581518110610b0f57fe5b60200260200101516113d8565b600101610ac4565b507fbc197c81000000000000000000000000000000000000000000000000000000009695505050505050565b6000610b5b8461092e565b90506105b7338483856113d8565b73ffffffffffffffffffffffffffffffffffffffff918216600090815260016020908152604080832093909416825291909152205460ff1690565b6000333014610bdf576040517f08c379a00000000000000000000000000000000000000000000000000000000081526004016103379061224a565b610be88461098b565b50610bf5308686866113d8565b507ff23a6e610000000000000000000000000000000000000000000000000000000095945050505050565b3373ffffffffffffffffffffffffffffffffffffffff86161480610c495750610c498533610b69565b610c9e576040517f08c379a000000000000000000000000000000000000000000000000000000000815260040180806020018281038252602a81526020018061240b602a913960400191505060405180910390fd5b73ffffffffffffffffffffffffffffffffffffffff8416610d0a576040517f08c379a000000000000000000000000000000000000000000000000000000000815260040180806020018281038252602b8152602001806123e0602b913960400191505060405180910390fd5b610d16858585856115d9565b6107db858585855a866116dc565b6000803d8015610d3b5760208114610d4457610d50565b60019150610d50565b60206000803e60005191505b501515905090565b73ffffffffffffffffffffffffffffffffffffffff8416600090815260208181526040808320868452909152902054610d9190836118cd565b73ffffffffffffffffffffffffffffffffffffffff8516600081815260208181526040808320888452825280832094909455835187815290810186905283519293919233927fc3d58168c5ae7397731d063d5bbf3d657854427343f4c083240f7aacaa2d0f62928290030190a46105b760008585855a866116dc565b8051825114610e67576040517f08c379a00000000000000000000000000000000000000000000000000000000081526004018080602001828103825260358152602001806124356035913960400191505060405180910390fd5b815160005b8181101561105957610efc838281518110610e8357fe5b60200260200101516000808973ffffffffffffffffffffffffffffffffffffffff1673ffffffffffffffffffffffffffffffffffffffff1681526020019081526020016000206000878581518110610ed757fe5b602002602001015181526020019081526020016000205461194890919063ffffffff16565b6000808873ffffffffffffffffffffffffffffffffffffffff1673ffffffffffffffffffffffffffffffffffffffff1681526020019081526020016000206000868481518110610f4857fe5b6020026020010151815260200190815260200160002081905550610fea838281518110610f7157fe5b60200260200101516000808873ffffffffffffffffffffffffffffffffffffffff1673ffffffffffffffffffffffffffffffffffffffff1681526020019081526020016000206000878581518110610fc557fe5b60200260200101518152602001908152602001600020546118cd90919063ffffffff16565b6000808773ffffffffffffffffffffffffffffffffffffffff1673ffffffffffffffffffffffffffffffffffffffff168152602001908152602001600020600086848151811061103657fe5b602090810291909101810151825281019190915260400160002055600101610e6c565b508373ffffffffffffffffffffffffffffffffffffffff168573ffffffffffffffffffffffffffffffffffffffff163373ffffffffffffffffffffffffffffffffffffffff167f4a39dc06d4c0dbc64b70af90fd698a233a518aa5d07e595d983b8c0526c8f7fb8686604051808060200180602001838103835285818151815260200191508051906020019060200280838360005b838110156111065781810151838201526020016110ee565b50505050905001838103825284818151815260200191508051906020019060200280838360005b8381101561114557818101518382015260200161112d565b5050505090500194505050505060405180910390a45050505050565b6111808573ffffffffffffffffffffffffffffffffffffffff166119bf565b156113d05760008573ffffffffffffffffffffffffffffffffffffffff1663bc197c8184338a8989886040518763ffffffff1660e01b8152600401808673ffffffffffffffffffffffffffffffffffffffff1681526020018573ffffffffffffffffffffffffffffffffffffffff168152602001806020018060200180602001848103845287818151815260200191508051906020019060200280838360005b83811015611238578181015183820152602001611220565b50505050905001848103835286818151815260200191508051906020019060200280838360005b8381101561127757818101518382015260200161125f565b50505050905001848103825285818151815260200191508051906020019080838360005b838110156112b357818101518382015260200161129b565b50505050905090810190601f1680156112e05780820380516001836020036101000a031916815260200191505b5098505050505050505050602060405180830381600088803b15801561130557600080fd5b5087f1158015611319573d6000803e3d6000fd5b50505050506040513d602081101561133057600080fd5b505190507fffffffff0000000000000000000000000000000000000000000000000000000081167fbc197c8100000000000000000000000000000000000000000000000000000000146113ce576040517f08c379a000000000000000000000000000000000000000000000000000000000815260040180806020018281038252603f8152602001806124f5603f913960400191505060405180910390fd5b505b505050505050565b6113e38483836119f6565b600182146114e9576000828152600460208190526040918290205491517fa9059cbb00000000000000000000000000000000000000000000000000000000815273ffffffffffffffffffffffffffffffffffffffff90921691829163a9059cbb91611452918891879101611f1d565b602060405180830381600087803b15801561146c57600080fd5b505af1158015611480573d6000803e3d6000fd5b505050506040513d601f19601f820116820180604052508101906114a49190611e54565b506114ad610d24565b6114e3576040517f08c379a0000000000000000000000000000000000000000000000000000000008152600401610337906121ed565b506105b7565b73ffffffffffffffffffffffffffffffffffffffff8316611536576040517f08c379a00000000000000000000000000000000000000000000000000000000081526004016103379061201c565b60008373ffffffffffffffffffffffffffffffffffffffff168260405161155c90611ec8565b60006040518083038185875af1925050503d8060008114611599576040519150601f19603f3d011682016040523d82523d6000602084013e61159e565b606091505b50509050806107db576040517f08c379a0000000000000000000000000000000000000000000000000000000008152600401610337906121ed565b73ffffffffffffffffffffffffffffffffffffffff84166000908152602081815260408083208584529091529020546116129082611948565b73ffffffffffffffffffffffffffffffffffffffff8086166000908152602081815260408083208784528252808320949094559186168152808252828120858252909152205461166290826118cd565b73ffffffffffffffffffffffffffffffffffffffff808516600081815260208181526040808320888452825291829020949094558051868152938401859052805191939288169233927fc3d58168c5ae7397731d063d5bbf3d657854427343f4c083240f7aacaa2d0f62929181900390910190a450505050565b6116fb8573ffffffffffffffffffffffffffffffffffffffff166119bf565b156113d05760008573ffffffffffffffffffffffffffffffffffffffff1663f23a6e6184338a8989886040518763ffffffff1660e01b8152600401808673ffffffffffffffffffffffffffffffffffffffff1681526020018573ffffffffffffffffffffffffffffffffffffffff16815260200184815260200183815260200180602001828103825283818151815260200191508051906020019080838360005b838110156117b457818101518382015260200161179c565b50505050905090810190601f1680156117e15780820380516001836020036101000a031916815260200191505b509650505050505050602060405180830381600088803b15801561180457600080fd5b5087f1158015611818573d6000803e3d6000fd5b50505050506040513d602081101561182f57600080fd5b505190507fffffffff0000000000000000000000000000000000000000000000000000000081167ff23a6e6100000000000000000000000000000000000000000000000000000000146113ce576040517f08c379a000000000000000000000000000000000000000000000000000000000815260040180806020018281038252603a815260200180612534603a913960400191505060405180910390fd5b60008282018381101561194157604080517f08c379a000000000000000000000000000000000000000000000000000000000815260206004820152601660248201527f536166654d617468236164643a204f564552464c4f5700000000000000000000604482015290519081900360640190fd5b9392505050565b6000828211156119b957604080517f08c379a000000000000000000000000000000000000000000000000000000000815260206004820152601760248201527f536166654d617468237375623a20554e444552464c4f57000000000000000000604482015290519081900360640190fd5b50900390565b6000813f801580159061194157507fc5d2460186f7233c927e7db2dcc703c0e500b653ca82273b7bfad8045d85a470141592915050565b73ffffffffffffffffffffffffffffffffffffffff8316600090815260208181526040808320858452909152902054611a2f9082611948565b73ffffffffffffffffffffffffffffffffffffffff841660008181526020818152604080832087845282528083209490945583518681529081018590528351919333927fc3d58168c5ae7397731d063d5bbf3d657854427343f4c083240f7aacaa2d0f629281900390910190a4505050565b600082601f830112611ab1578081fd5b8135611ac4611abf8261238e565b61236a565b818152915060208083019084810181840286018201871015611ae557600080fd5b60005b84811015611b0457813584529282019290820190600101611ae8565b505050505092915050565b600082601f830112611b1f578081fd5b813567ffffffffffffffff811115611b3357fe5b611b6460207fffffffffffffffffffffffffffffffffffffffffffffffffffffffffffffffe0601f8401160161236a565b9150808252836020828501011115611b7b57600080fd5b8060208401602084013760009082016020015292915050565b600060208284031215611ba5578081fd5b8135611941816123ac565b60008060408385031215611bc2578081fd5b8235611bcd816123ac565b91506020830135611bdd816123ac565b809150509250929050565b600080600080600060a08688031215611bff578081fd5b8535611c0a816123ac565b94506020860135611c1a816123ac565b9350604086013567ffffffffffffffff80821115611c36578283fd5b611c4289838a01611aa1565b94506060880135915080821115611c57578283fd5b611c6389838a01611aa1565b93506080880135915080821115611c78578283fd5b50611c8588828901611b0f565b9150509295509295909350565b600080600060608486031215611ca6578283fd5b8335611cb1816123ac565b92506020840135611cc1816123ac565b929592945050506040919091013590565b600080600080600060a08688031215611ce9578081fd5b8535611cf4816123ac565b94506020860135611d04816123ac565b93506040860135925060608601359150608086013567ffffffffffffffff811115611d2d578182fd5b611c8588828901611b0f565b60008060408385031215611d4b578182fd5b8235611d56816123ac565b91506020830135611bdd816123d1565b60008060408385031215611d78578182fd5b8235611d83816123ac565b946020939093013593505050565b60008060408385031215611da3578182fd5b823567ffffffffffffffff80821115611dba578384fd5b818501915085601f830112611dcd578384fd5b8135611ddb611abf8261238e565b80828252602080830192508086018a828387028901011115611dfb578889fd5b8896505b84871015611e26578035611e12816123ac565b845260019690960195928101928101611dff565b509096508701359350505080821115611e3d578283fd5b50611e4a85828601611aa1565b9150509250929050565b600060208284031215611e65578081fd5b8151611941816123d1565b600060208284031215611e81578081fd5b81357fffffffff0000000000000000000000000000000000000000000000000000000081168114611941578182fd5b600060208284031215611ec1578081fd5b5035919050565b90565b73ffffffffffffffffffffffffffffffffffffffff91909116815260200190565b73ffffffffffffffffffffffffffffffffffffffff9384168152919092166020820152604081019190915260600190565b73ffffffffffffffffffffffffffffffffffffffff929092168252602082015260400190565b6020808252825182820181905260009190848201906040850190845b81811015611f7b57835183529284019291840191600101611f5f565b50909695505050505050565b901515815260200190565b7fffffffff0000000000000000000000000000000000000000000000000000000091909116815260200190565b60208082526025908201527f455243323057726170706572236465706f7369743a205452414e534645525f4660408201527f41494c4544000000000000000000000000000000000000000000000000000000606082015260800190565b60208082526028908201527f4552433230577261707065722377697468647261773a20494e56414c49445f5260408201527f4543495049454e54000000000000000000000000000000000000000000000000606082015260800190565b60208082526029908201527f455243323057726170706572236465706f7369743a20494e434f52524543545f60408201527f4d53475f56414c55450000000000000000000000000000000000000000000000606082015260800190565b6020808252602d908201527f455243323057726170706572236765744964416464726573733a20554e52454760408201527f495354455245445f544f4b454e00000000000000000000000000000000000000606082015260800190565b60208082526027908201527f455243323057726170706572236465706f7369743a20494e56414c49445f524560408201527f43495049454e5400000000000000000000000000000000000000000000000000606082015260800190565b60208082526028908201527f455243323057726170706572236465706f7369743a204e4f4e5f4e554c4c5f4d60408201527f53475f56414c5545000000000000000000000000000000000000000000000000606082015260800190565b60208082526026908201527f4552433230577261707065722377697468647261773a205452414e534645525f60408201527f4641494c45440000000000000000000000000000000000000000000000000000606082015260800190565b60208082526038908201527f455243323057726170706572236f6e4552433131353552656365697665643a2060408201527f494e56414c49445f455243313135355f52454345495645440000000000000000606082015260800190565b6020808252602b908201527f45524332305772617070657223676574546f6b656e49443a20554e524547495360408201527f54455245445f544f4b454e000000000000000000000000000000000000000000606082015260800190565b6020808252603d908201527f455243323057726170706572236f6e455243313135354261746368526563656960408201527f7665643a20494e56414c49445f455243313135355f5245434549564544000000606082015260800190565b90815260200190565b60405181810167ffffffffffffffff8111828210171561238657fe5b604052919050565b600067ffffffffffffffff8211156123a257fe5b5060209081020190565b73ffffffffffffffffffffffffffffffffffffffff811681146123ce57600080fd5b50565b80151581146123ce57600080fdfe4552433131353523736166655472616e7366657246726f6d3a20494e56414c49445f524543495049454e544552433131353523736166655472616e7366657246726f6d3a20494e56414c49445f4f50455241544f5245524331313535235f7361666542617463685472616e7366657246726f6d3a20494e56414c49445f4152524159535f4c454e47544845524331313535237361666542617463685472616e7366657246726f6d3a20494e56414c49445f524543495049454e54455243313135352362616c616e63654f6642617463683a20494e56414c49445f41525241595f4c454e47544845524331313535237361666542617463685472616e7366657246726f6d3a20494e56414c49445f4f50455241544f5245524331313535235f63616c6c6f6e45524331313535426174636852656365697665643a20494e56414c49445f4f4e5f524543454956455f4d45535341474545524331313535235f63616c6c6f6e4552433131353552656365697665643a20494e56414c49445f4f4e5f524543454956455f4d455353414745a26469706673582212206feb58fc347a4e78852b9a8feaf4207dba96aad0b3aed58d7a8ce0e879c74f4f64736f6c63430007040033",
  "linkReferences": {},
  "deployedLinkReferences": {}
}